{
  "contractName": "EkokyNFT",
  "abi": [
    {
      "inputs": [
        {
          "internalType": "address",
          "name": "_token",
          "type": "address"
        }
      ],
      "stateMutability": "nonpayable",
      "type": "constructor"
    },
    {
      "anonymous": false,
      "inputs": [
        {
          "indexed": true,
          "internalType": "address",
          "name": "owner",
          "type": "address"
        },
        {
          "indexed": true,
          "internalType": "address",
          "name": "approved",
          "type": "address"
        },
        {
          "indexed": true,
          "internalType": "uint256",
          "name": "tokenId",
          "type": "uint256"
        }
      ],
      "name": "Approval",
      "type": "event"
    },
    {
      "anonymous": false,
      "inputs": [
        {
          "indexed": true,
          "internalType": "address",
          "name": "owner",
          "type": "address"
        },
        {
          "indexed": true,
          "internalType": "address",
          "name": "operator",
          "type": "address"
        },
        {
          "indexed": false,
          "internalType": "bool",
          "name": "approved",
          "type": "bool"
        }
      ],
      "name": "ApprovalForAll",
      "type": "event"
    },
    {
      "anonymous": false,
      "inputs": [
        {
          "indexed": true,
          "internalType": "address",
          "name": "sender",
          "type": "address"
        },
        {
          "indexed": false,
          "internalType": "uint256",
          "name": "amount",
          "type": "uint256"
        },
        {
          "indexed": false,
          "internalType": "string",
          "name": "name",
          "type": "string"
        },
        {
          "indexed": false,
          "internalType": "string",
          "name": "objective",
          "type": "string"
        },
        {
          "indexed": false,
          "internalType": "string",
          "name": "direction",
          "type": "string"
        },
        {
          "indexed": false,
          "internalType": "string",
          "name": "email",
          "type": "string"
        },
        {
          "indexed": false,
          "internalType": "string",
          "name": "phone",
          "type": "string"
        },
        {
          "indexed": false,
          "internalType": "uint256",
          "name": "claimTime",
          "type": "uint256"
        },
        {
          "indexed": false,
          "internalType": "uint256",
          "name": "nftId",
          "type": "uint256"
        }
      ],
      "name": "ClaimJsonNFT",
      "type": "event"
    },
    {
      "anonymous": false,
      "inputs": [
        {
          "indexed": true,
          "internalType": "address",
          "name": "sender",
          "type": "address"
        },
        {
          "indexed": false,
          "internalType": "uint256",
          "name": "amount",
          "type": "uint256"
        },
        {
          "indexed": false,
          "internalType": "string",
          "name": "name",
          "type": "string"
        },
        {
          "indexed": false,
          "internalType": "string",
          "name": "objective",
          "type": "string"
        },
        {
          "indexed": false,
          "internalType": "string",
          "name": "direction",
          "type": "string"
        },
        {
          "indexed": false,
          "internalType": "string",
          "name": "email",
          "type": "string"
        },
        {
          "indexed": false,
          "internalType": "string",
          "name": "phone",
          "type": "string"
        },
        {
          "indexed": false,
          "internalType": "uint256",
          "name": "nftId",
          "type": "uint256"
        }
      ],
      "name": "CreateJsonNFT",
      "type": "event"
    },
    {
      "anonymous": false,
      "inputs": [
        {
          "indexed": true,
          "internalType": "address",
          "name": "from",
          "type": "address"
        },
        {
          "indexed": true,
          "internalType": "address",
          "name": "to",
          "type": "address"
        },
        {
          "indexed": true,
          "internalType": "uint256",
          "name": "tokenId",
          "type": "uint256"
        }
      ],
      "name": "Transfer",
      "type": "event"
    },
    {
      "inputs": [
        {
          "internalType": "uint256",
          "name": "",
          "type": "uint256"
        }
      ],
      "name": "JsonNFTs",
      "outputs": [
        {
          "internalType": "uint256",
          "name": "amount",
          "type": "uint256"
        },
        {
          "internalType": "string",
          "name": "name",
          "type": "string"
        },
        {
          "internalType": "string",
          "name": "objective",
          "type": "string"
        },
        {
          "internalType": "string",
          "name": "direction",
          "type": "string"
        },
        {
          "internalType": "string",
          "name": "email",
          "type": "string"
        },
        {
          "internalType": "string",
          "name": "phone",
          "type": "string"
        }
      ],
      "stateMutability": "view",
      "type": "function"
    },
    {
      "inputs": [
        {
          "internalType": "address",
          "name": "to",
          "type": "address"
        },
        {
          "internalType": "uint256",
          "name": "tokenId",
          "type": "uint256"
        }
      ],
      "name": "approve",
      "outputs": [],
      "stateMutability": "nonpayable",
      "type": "function"
    },
    {
      "inputs": [
        {
          "internalType": "address",
          "name": "owner",
          "type": "address"
        }
      ],
      "name": "balanceOf",
      "outputs": [
        {
          "internalType": "uint256",
          "name": "",
          "type": "uint256"
        }
      ],
      "stateMutability": "view",
      "type": "function"
    },
    {
      "inputs": [
        {
          "internalType": "uint256",
          "name": "tokenId",
          "type": "uint256"
        }
      ],
      "name": "getApproved",
      "outputs": [
        {
          "internalType": "address",
          "name": "",
          "type": "address"
        }
      ],
      "stateMutability": "view",
      "type": "function"
    },
    {
      "inputs": [
        {
          "internalType": "address",
          "name": "owner",
          "type": "address"
        },
        {
          "internalType": "address",
          "name": "operator",
          "type": "address"
        }
      ],
      "name": "isApprovedForAll",
      "outputs": [
        {
          "internalType": "bool",
          "name": "",
          "type": "bool"
        }
      ],
      "stateMutability": "view",
      "type": "function"
    },
    {
      "inputs": [],
      "name": "name",
      "outputs": [
        {
          "internalType": "string",
          "name": "",
          "type": "string"
        }
      ],
      "stateMutability": "view",
      "type": "function"
    },
    {
      "inputs": [],
      "name": "nftCounter",
      "outputs": [
        {
          "internalType": "uint256",
          "name": "",
          "type": "uint256"
        }
      ],
      "stateMutability": "view",
      "type": "function"
    },
    {
      "inputs": [
        {
          "internalType": "uint256",
          "name": "tokenId",
          "type": "uint256"
        }
      ],
      "name": "ownerOf",
      "outputs": [
        {
          "internalType": "address",
          "name": "",
          "type": "address"
        }
      ],
      "stateMutability": "view",
      "type": "function"
    },
    {
      "inputs": [
        {
          "internalType": "address",
          "name": "from",
          "type": "address"
        },
        {
          "internalType": "address",
          "name": "to",
          "type": "address"
        },
        {
          "internalType": "uint256",
          "name": "tokenId",
          "type": "uint256"
        }
      ],
      "name": "safeTransferFrom",
      "outputs": [],
      "stateMutability": "nonpayable",
      "type": "function"
    },
    {
      "inputs": [
        {
          "internalType": "address",
          "name": "from",
          "type": "address"
        },
        {
          "internalType": "address",
          "name": "to",
          "type": "address"
        },
        {
          "internalType": "uint256",
          "name": "tokenId",
          "type": "uint256"
        },
        {
          "internalType": "bytes",
          "name": "_data",
          "type": "bytes"
        }
      ],
      "name": "safeTransferFrom",
      "outputs": [],
      "stateMutability": "nonpayable",
      "type": "function"
    },
    {
      "inputs": [
        {
          "internalType": "address",
          "name": "operator",
          "type": "address"
        },
        {
          "internalType": "bool",
          "name": "approved",
          "type": "bool"
        }
      ],
      "name": "setApprovalForAll",
      "outputs": [],
      "stateMutability": "nonpayable",
      "type": "function"
    },
    {
      "inputs": [
        {
          "internalType": "bytes4",
          "name": "interfaceId",
          "type": "bytes4"
        }
      ],
      "name": "supportsInterface",
      "outputs": [
        {
          "internalType": "bool",
          "name": "",
          "type": "bool"
        }
      ],
      "stateMutability": "view",
      "type": "function"
    },
    {
      "inputs": [],
      "name": "symbol",
      "outputs": [
        {
          "internalType": "string",
          "name": "",
          "type": "string"
        }
      ],
      "stateMutability": "view",
      "type": "function"
    },
    {
      "inputs": [],
      "name": "token",
      "outputs": [
        {
          "internalType": "contract IERC20",
          "name": "",
          "type": "address"
        }
      ],
      "stateMutability": "view",
      "type": "function"
    },
    {
      "inputs": [
        {
          "internalType": "uint256",
          "name": "tokenId",
          "type": "uint256"
        }
      ],
      "name": "tokenURI",
      "outputs": [
        {
          "internalType": "string",
          "name": "",
          "type": "string"
        }
      ],
      "stateMutability": "view",
      "type": "function"
    },
    {
      "inputs": [
        {
          "internalType": "address",
          "name": "from",
          "type": "address"
        },
        {
          "internalType": "address",
          "name": "to",
          "type": "address"
        },
        {
          "internalType": "uint256",
          "name": "tokenId",
          "type": "uint256"
        }
      ],
      "name": "transferFrom",
      "outputs": [],
      "stateMutability": "nonpayable",
      "type": "function"
    },
    {
      "stateMutability": "payable",
      "type": "receive"
    },
    {
      "inputs": [
        {
          "internalType": "uint256",
          "name": "_amount",
          "type": "uint256"
        },
        {
          "internalType": "string",
          "name": "_name",
          "type": "string"
        },
        {
          "internalType": "string",
          "name": "_objective",
          "type": "string"
        },
        {
          "internalType": "string",
          "name": "_direction",
          "type": "string"
        },
        {
          "internalType": "string",
          "name": "_email",
          "type": "string"
        },
        {
          "internalType": "string",
          "name": "_phone",
          "type": "string"
        }
      ],
      "name": "createJsonNFT",
      "outputs": [
        {
          "internalType": "bool",
          "name": "",
          "type": "bool"
        }
      ],
      "stateMutability": "nonpayable",
      "type": "function"
    },
    {
      "inputs": [
        {
          "internalType": "uint256",
          "name": "nftId",
          "type": "uint256"
        }
      ],
      "name": "claimJsonNFT",
      "outputs": [
        {
          "internalType": "bool",
          "name": "",
          "type": "bool"
        }
      ],
      "stateMutability": "nonpayable",
      "type": "function"
    }
  ],
  "bytecode": "0x60806040523480156200001157600080fd5b506040516200222338038062002223833981016040819052620000349162000174565b604080518082018252600e81526d115adbdade48129cdbdb8813919560921b602080830191825283518085019094526007845266129cdbdb93919560ca1b9084015281519192916200008991600091620000ce565b5080516200009f906001906020840190620000ce565b5050600680546001600160a01b0319166001600160a01b039390931692909217909155506000600755620001e2565b828054620000dc90620001a6565b90600052602060002090601f0160209004810192826200010057600085556200014b565b82601f106200011b57805160ff19168380011785556200014b565b828001600101855582156200014b579182015b828111156200014b5782518255916020019190600101906200012e565b50620001599291506200015d565b5090565b5b808211156200015957600081556001016200015e565b6000602082840312156200018757600080fd5b81516001600160a01b03811681146200019f57600080fd5b9392505050565b600181811c90821680620001bb57607f821691505b602082108103620001dc57634e487b7160e01b600052602260045260246000fd5b50919050565b61203180620001f26000396000f3fe60806040526004361061010d5760003560e01c8063936515e411610095578063b88d4fde11610064578063b88d4fde1461034a578063c87b56dd1461036a578063e574609e1461038a578063e985e9c5146103a0578063fc0c546a146103e957600080fd5b8063936515e4146102d557806395d89b41146102f5578063a22cb4651461030a578063a5c2bc241461032a57600080fd5b806323b872dd116100dc57806323b872dd1461021557806342842e0e146102355780634f8d1781146102555780636352211e1461028757806370a08231146102a757600080fd5b806301ffc9a71461016457806306fdde0314610199578063081812fc146101bb578063095ea7b3146101f357600080fd5b3661015f5760405162461bcd60e51b815260206004820152601c60248201527f4e6174697665206465706f736974206e6f7420737570706f727465640000000060448201526064015b60405180910390fd5b600080fd5b34801561017057600080fd5b5061018461017f3660046117de565b610409565b60405190151581526020015b60405180910390f35b3480156101a557600080fd5b506101ae61045b565b6040516101909190611853565b3480156101c757600080fd5b506101db6101d6366004611866565b6104ed565b6040516001600160a01b039091168152602001610190565b3480156101ff57600080fd5b5061021361020e36600461189b565b610582565b005b34801561022157600080fd5b506102136102303660046118c5565b610697565b34801561024157600080fd5b506102136102503660046118c5565b6106c8565b34801561026157600080fd5b50610275610270366004611866565b6106e3565b60405161019096959493929190611901565b34801561029357600080fd5b506101db6102a2366004611866565b6109c0565b3480156102b357600080fd5b506102c76102c2366004611975565b610a37565b604051908152602001610190565b3480156102e157600080fd5b506101846102f0366004611a3c565b610abe565b34801561030157600080fd5b506101ae610c65565b34801561031657600080fd5b50610213610325366004611b24565b610c74565b34801561033657600080fd5b50610184610345366004611866565b610c83565b34801561035657600080fd5b50610213610365366004611b5b565b610e79565b34801561037657600080fd5b506101ae610385366004611866565b610eb1565b34801561039657600080fd5b506102c760075481565b3480156103ac57600080fd5b506101846103bb366004611bd7565b6001600160a01b03918216600090815260056020908152604080832093909416825291909152205460ff1690565b3480156103f557600080fd5b506006546101db906001600160a01b031681565b60006001600160e01b031982166380ac58cd60e01b148061043a57506001600160e01b03198216635b5e139f60e01b145b8061045557506301ffc9a760e01b6001600160e01b03198316145b92915050565b60606000805461046a90611c0a565b80601f016020809104026020016040519081016040528092919081815260200182805461049690611c0a565b80156104e35780601f106104b8576101008083540402835291602001916104e3565b820191906000526020600020905b8154815290600101906020018083116104c657829003601f168201915b5050505050905090565b6000818152600260205260408120546001600160a01b03166105665760405162461bcd60e51b815260206004820152602c60248201527f4552433732313a20617070726f76656420717565727920666f72206e6f6e657860448201526b34b9ba32b73a103a37b5b2b760a11b6064820152608401610156565b506000908152600460205260409020546001600160a01b031690565b600061058d826109c0565b9050806001600160a01b0316836001600160a01b0316036105fa5760405162461bcd60e51b815260206004820152602160248201527f4552433732313a20617070726f76616c20746f2063757272656e74206f776e656044820152603960f91b6064820152608401610156565b336001600160a01b0382161480610616575061061681336103bb565b6106885760405162461bcd60e51b815260206004820152603860248201527f4552433732313a20617070726f76652063616c6c6572206973206e6f74206f7760448201527f6e6572206e6f7220617070726f76656420666f7220616c6c00000000000000006064820152608401610156565b6106928383610f99565b505050565b6106a13382611007565b6106bd5760405162461bcd60e51b815260040161015690611c44565b6106928383836110fe565b61069283838360405180602001604052806000815250610e79565b6008602052600090815260409020805460018201805491929161070590611c0a565b80601f016020809104026020016040519081016040528092919081815260200182805461073190611c0a565b801561077e5780601f106107535761010080835404028352916020019161077e565b820191906000526020600020905b81548152906001019060200180831161076157829003601f168201915b50505050509080600201805461079390611c0a565b80601f01602080910402602001604051908101604052809291908181526020018280546107bf90611c0a565b801561080c5780601f106107e15761010080835404028352916020019161080c565b820191906000526020600020905b8154815290600101906020018083116107ef57829003601f168201915b50505050509080600301805461082190611c0a565b80601f016020809104026020016040519081016040528092919081815260200182805461084d90611c0a565b801561089a5780601f1061086f5761010080835404028352916020019161089a565b820191906000526020600020905b81548152906001019060200180831161087d57829003601f168201915b5050505050908060040180546108af90611c0a565b80601f01602080910402602001604051908101604052809291908181526020018280546108db90611c0a565b80156109285780601f106108fd57610100808354040283529160200191610928565b820191906000526020600020905b81548152906001019060200180831161090b57829003601f168201915b50505050509080600501805461093d90611c0a565b80601f016020809104026020016040519081016040528092919081815260200182805461096990611c0a565b80156109b65780601f1061098b576101008083540402835291602001916109b6565b820191906000526020600020905b81548152906001019060200180831161099957829003601f168201915b5050505050905086565b6000818152600260205260408120546001600160a01b0316806104555760405162461bcd60e51b815260206004820152602960248201527f4552433732313a206f776e657220717565727920666f72206e6f6e657869737460448201526832b73a103a37b5b2b760b91b6064820152608401610156565b60006001600160a01b038216610aa25760405162461bcd60e51b815260206004820152602a60248201527f4552433732313a2062616c616e636520717565727920666f7220746865207a65604482015269726f206164647265737360b01b6064820152608401610156565b506001600160a01b031660009081526003602052604090205490565b6000808711610b195760405162461bcd60e51b815260206004820152602160248201527f416d6f756e74206e6565647320746f2062652067726561746572207468616e206044820152600360fc1b6064820152608401610156565b60078054906000610b2983611cab565b90915550506040805160c0810182528881526020808201898152828401899052606083018890526080830187905260a08301869052600754600090815260088352939093208251815592518051929392610b89926001850192019061172c565b5060408201518051610ba591600284019160209091019061172c565b5060608201518051610bc191600384019160209091019061172c565b5060808201518051610bdd91600484019160209091019061172c565b5060a08201518051610bf991600584019160209091019061172c565b50905050610c093360075461129a565b336001600160a01b03167f01412fb4e6de44de5de9f301eb84854dd1e1b8354ad9cdc70418afc244431903888888888888600754604051610c509796959493929190611cc4565b60405180910390a25060019695505050505050565b60606001805461046a90611c0a565b610c7f3383836112b4565b5050565b60008181526008602052604080822080546006549251636eb1769f60e11b8152336004820152306024820152919290916001600160a01b039091169063dd62ed3e90604401602060405180830381865afa158015610ce5573d6000803e3d6000fd5b505050506040513d601f19601f82011682018060405250810190610d099190611d40565b1015610d575760405162461bcd60e51b815260206004820152601960248201527f53657420746f6b656e20616c6c6f77616e6365206669727374000000000000006044820152606401610156565b60065481546040516323b872dd60e01b815233600482015230602482015260448101919091526000916001600160a01b0316906323b872dd906064016020604051808303816000875af1158015610db2573d6000803e3d6000fd5b505050506040513d601f19601f82011682018060405250810190610dd69190611d59565b905080610e175760405162461bcd60e51b815260206004820152600f60248201526e151c985b9cd9995c8819985a5b1959608a1b6044820152606401610156565b815460405133917fd24d23f57a6c5ae93907dc83ecde6716cfde5f87ca6c983b553ffd901264d4cc91610e67919060018701906002880190600389019060048a019060058b019042908e90611e15565b60405180910390a25060019392505050565b610e833383611007565b610e9f5760405162461bcd60e51b815260040161015690611c44565b610eab84848484611382565b50505050565b6000818152600260205260409020546060906001600160a01b0316610f305760405162461bcd60e51b815260206004820152602f60248201527f4552433732314d657461646174613a2055524920717565727920666f72206e6f60448201526e3732bc34b9ba32b73a103a37b5b2b760891b6064820152608401610156565b6000610f4760408051602081019091526000815290565b90506000815111610f675760405180602001604052806000815250610f92565b80610f71846113b5565b604051602001610f82929190611e9d565b6040516020818303038152906040525b9392505050565b600081815260046020526040902080546001600160a01b0319166001600160a01b0384169081179091558190610fce826109c0565b6001600160a01b03167f8c5be1e5ebec7d5bd14f71427d1e84f3dd0314c0f7b2291e5b200ac8c7c3b92560405160405180910390a45050565b6000818152600260205260408120546001600160a01b03166110805760405162461bcd60e51b815260206004820152602c60248201527f4552433732313a206f70657261746f7220717565727920666f72206e6f6e657860448201526b34b9ba32b73a103a37b5b2b760a11b6064820152608401610156565b600061108b836109c0565b9050806001600160a01b0316846001600160a01b031614806110d257506001600160a01b0380821660009081526005602090815260408083209388168352929052205460ff165b806110f65750836001600160a01b03166110eb846104ed565b6001600160a01b0316145b949350505050565b826001600160a01b0316611111826109c0565b6001600160a01b0316146111755760405162461bcd60e51b815260206004820152602560248201527f4552433732313a207472616e736665722066726f6d20696e636f72726563742060448201526437bbb732b960d91b6064820152608401610156565b6001600160a01b0382166111d75760405162461bcd60e51b8152602060048201526024808201527f4552433732313a207472616e7366657220746f20746865207a65726f206164646044820152637265737360e01b6064820152608401610156565b6111e2600082610f99565b6001600160a01b038316600090815260036020526040812080546001929061120b908490611ecc565b90915550506001600160a01b0382166000908152600360205260408120805460019290611239908490611ee3565b909155505060008181526002602052604080822080546001600160a01b0319166001600160a01b0386811691821790925591518493918716917fddf252ad1be2c89b69c2b068fc378daa952ba7f163c4a11628f55a4df523b3ef91a4505050565b610c7f8282604051806020016040528060008152506114b6565b816001600160a01b0316836001600160a01b0316036113155760405162461bcd60e51b815260206004820152601960248201527f4552433732313a20617070726f766520746f2063616c6c6572000000000000006044820152606401610156565b6001600160a01b03838116600081815260056020908152604080832094871680845294825291829020805460ff191686151590811790915591519182527f17307eab39ab6107e8899845ad3d59bd9653f200f220920489ca2b5937696c31910160405180910390a3505050565b61138d8484846110fe565b611399848484846114e9565b610eab5760405162461bcd60e51b815260040161015690611efb565b6060816000036113dc5750506040805180820190915260018152600360fc1b602082015290565b8160005b811561140657806113f081611cab565b91506113ff9050600a83611f63565b91506113e0565b60008167ffffffffffffffff81111561142157611421611990565b6040519080825280601f01601f19166020018201604052801561144b576020820181803683370190505b5090505b84156110f657611460600183611ecc565b915061146d600a86611f77565b611478906030611ee3565b60f81b81838151811061148d5761148d611f8b565b60200101906001600160f81b031916908160001a9053506114af600a86611f63565b945061144f565b6114c083836115ea565b6114cd60008484846114e9565b6106925760405162461bcd60e51b815260040161015690611efb565b60006001600160a01b0384163b156115df57604051630a85bd0160e11b81526001600160a01b0385169063150b7a029061152d903390899088908890600401611fa1565b6020604051808303816000875af1925050508015611568575060408051601f3d908101601f1916820190925261156591810190611fde565b60015b6115c5573d808015611596576040519150601f19603f3d011682016040523d82523d6000602084013e61159b565b606091505b5080516000036115bd5760405162461bcd60e51b815260040161015690611efb565b805181602001fd5b6001600160e01b031916630a85bd0160e11b1490506110f6565b506001949350505050565b6001600160a01b0382166116405760405162461bcd60e51b815260206004820181905260248201527f4552433732313a206d696e7420746f20746865207a65726f20616464726573736044820152606401610156565b6000818152600260205260409020546001600160a01b0316156116a55760405162461bcd60e51b815260206004820152601c60248201527f4552433732313a20746f6b656e20616c7265616479206d696e746564000000006044820152606401610156565b6001600160a01b03821660009081526003602052604081208054600192906116ce908490611ee3565b909155505060008181526002602052604080822080546001600160a01b0319166001600160a01b03861690811790915590518392907fddf252ad1be2c89b69c2b068fc378daa952ba7f163c4a11628f55a4df523b3ef908290a45050565b82805461173890611c0a565b90600052602060002090601f01602090048101928261175a57600085556117a0565b82601f1061177357805160ff19168380011785556117a0565b828001600101855582156117a0579182015b828111156117a0578251825591602001919060010190611785565b506117ac9291506117b0565b5090565b5b808211156117ac57600081556001016117b1565b6001600160e01b0319811681146117db57600080fd5b50565b6000602082840312156117f057600080fd5b8135610f92816117c5565b60005b838110156118165781810151838201526020016117fe565b83811115610eab5750506000910152565b6000815180845261183f8160208601602086016117fb565b601f01601f19169290920160200192915050565b602081526000610f926020830184611827565b60006020828403121561187857600080fd5b5035919050565b80356001600160a01b038116811461189657600080fd5b919050565b600080604083850312156118ae57600080fd5b6118b78361187f565b946020939093013593505050565b6000806000606084860312156118da57600080fd5b6118e38461187f565b92506118f16020850161187f565b9150604084013590509250925092565b86815260c06020820152600061191a60c0830188611827565b828103604084015261192c8188611827565b905082810360608401526119408187611827565b905082810360808401526119548186611827565b905082810360a08401526119688185611827565b9998505050505050505050565b60006020828403121561198757600080fd5b610f928261187f565b634e487b7160e01b600052604160045260246000fd5b600067ffffffffffffffff808411156119c1576119c1611990565b604051601f8501601f19908116603f011681019082821181831017156119e9576119e9611990565b81604052809350858152868686011115611a0257600080fd5b858560208301376000602087830101525050509392505050565b600082601f830112611a2d57600080fd5b610f92838335602085016119a6565b60008060008060008060c08789031215611a5557600080fd5b86359550602087013567ffffffffffffffff80821115611a7457600080fd5b611a808a838b01611a1c565b96506040890135915080821115611a9657600080fd5b611aa28a838b01611a1c565b95506060890135915080821115611ab857600080fd5b611ac48a838b01611a1c565b94506080890135915080821115611ada57600080fd5b611ae68a838b01611a1c565b935060a0890135915080821115611afc57600080fd5b50611b0989828a01611a1c565b9150509295509295509295565b80151581146117db57600080fd5b60008060408385031215611b3757600080fd5b611b408361187f565b91506020830135611b5081611b16565b809150509250929050565b60008060008060808587031215611b7157600080fd5b611b7a8561187f565b9350611b886020860161187f565b925060408501359150606085013567ffffffffffffffff811115611bab57600080fd5b8501601f81018713611bbc57600080fd5b611bcb878235602084016119a6565b91505092959194509250565b60008060408385031215611bea57600080fd5b611bf38361187f565b9150611c016020840161187f565b90509250929050565b600181811c90821680611c1e57607f821691505b602082108103611c3e57634e487b7160e01b600052602260045260246000fd5b50919050565b60208082526031908201527f4552433732313a207472616e736665722063616c6c6572206973206e6f74206f6040820152701ddb995c881b9bdc88185c1c1c9bdd9959607a1b606082015260800190565b634e487b7160e01b600052601160045260246000fd5b600060018201611cbd57611cbd611c95565b5060010190565b87815260e060208201526000611cdd60e0830189611827565b8281036040840152611cef8189611827565b90508281036060840152611d038188611827565b90508281036080840152611d178187611827565b905082810360a0840152611d2b8186611827565b9150508260c083015298975050505050505050565b600060208284031215611d5257600080fd5b5051919050565b600060208284031215611d6b57600080fd5b8151610f9281611b16565b8054600090600181811c9080831680611d9057607f831692505b60208084108203611db157634e487b7160e01b600052602260045260246000fd5b83885260208801828015611dcc5760018114611ddd57611e08565b60ff19871682528282019750611e08565b60008981526020902060005b87811015611e0257815484820152908601908401611de9565b83019850505b5050505050505092915050565b60006101008a8352806020840152611e2f8184018b611d76565b90508281036040840152611e43818a611d76565b90508281036060840152611e578189611d76565b90508281036080840152611e6b8188611d76565b905082810360a0840152611e7f8187611d76565b63ffffffff9590951660c0840152505060e001529695505050505050565b60008351611eaf8184602088016117fb565b835190830190611ec38183602088016117fb565b01949350505050565b600082821015611ede57611ede611c95565b500390565b60008219821115611ef657611ef6611c95565b500190565b60208082526032908201527f4552433732313a207472616e7366657220746f206e6f6e20455243373231526560408201527131b2b4bb32b91034b6b83632b6b2b73a32b960711b606082015260800190565b634e487b7160e01b600052601260045260246000fd5b600082611f7257611f72611f4d565b500490565b600082611f8657611f86611f4d565b500690565b634e487b7160e01b600052603260045260246000fd5b6001600160a01b0385811682528416602082015260408101839052608060608201819052600090611fd490830184611827565b9695505050505050565b600060208284031215611ff057600080fd5b8151610f92816117c556fea26469706673582212200a0a289f5791fe548f7ec975ca0f3b46b27b0cc3b55a532bec7f1f395be5a75664736f6c634300080e0033",
  "immutableReferences": {},
  "source": "//SPDX-License-Identifier: UNLICENSED\nimport \"@openzeppelin/contracts/token/ERC20/IERC20.sol\";\nimport \"@openzeppelin/contracts/token/ERC721/ERC721.sol\";\n\npragma solidity ^0.8.10;\n\ncontract EkokyNFT is ERC721 {\n\n    struct JsonNFT {\n        uint256 amount;\n        string name;\n        string objective;\n        string direction;\n        string email;\n        string phone;\n    }\n\n    IERC20 public token; \n    uint256 public nftCounter; // nftCounter is used to generate unique nftIDs\n\n    mapping(uint256 => JsonNFT) public JsonNFTs; // mapping from nftIDs to JsonNFT-structs\n\n    event CreateJsonNFT(address indexed sender, uint256 amount, string name, string objective, string direction, string email, string phone, uint256 nftId);\n    event ClaimJsonNFT(address indexed sender, uint256 amount, string name, string objective, string direction, string email, string phone, uint256 claimTime, uint256 nftId);\n\n    constructor(address _token)\n    ERC721(\"Ekoky Json NFT\", \"JsonNFT\") { \n        token = IERC20(_token);\n        nftCounter = 0;\n    }\n\n    receive() external payable {\n        // prevent the native coin of a chain (ZENIQ coin) to be sent to this contract\n        revert(\"Native deposit not supported\");\n    }\n\n    function createJsonNFT(uint256 _amount, string memory _name, string memory _objective, string memory _direction, string memory _email, string memory _phone) external returns (bool) {\n        require(_amount > 0, \"Amount needs to be greater than 0\");\n\n        nftCounter++;\n        JsonNFTs[nftCounter] = JsonNFT(_amount, _name, _objective, _direction, _email, _phone); // create NFT in the rewardsNFTs data structure\n        _safeMint(msg.sender, nftCounter); // create NFT in data structures of the ERC721 super class\n\n        emit CreateJsonNFT(msg.sender, _amount, _name, _objective, _direction, _email, _phone, nftCounter);\n        return true;\n    }\n\n    function claimJsonNFT(uint256 nftId) public returns (bool) {\n        // require(ownerOf(nftId) != msg.sender, \"cannot claim an NFT that you do not own\");\n\n        JsonNFT storage nft = JsonNFTs[nftId];\n\n        require(token.allowance(msg.sender, address(this)) >= nft.amount , \"Set token allowance first\");\n\n        // Transfers tokens from your wallet to this contract\n        bool successTx = token.transferFrom(msg.sender, address(this), nft.amount);\n        require(successTx, \"Transfer failed\");\n\n        emit ClaimJsonNFT(msg.sender, nft.amount, nft.name, nft.objective, nft.direction, nft.email, nft.phone, uint32(block.timestamp), nftId);\n        return true;\n    }\n}\n",
  "sourcePath": "/home/codedrifter/ekoky-blockchain/contracts/EkokyNFT.sol",
  "compiler": {
    "name": "solc",
    "version": "0.8.14+commit.80d49f37.Emscripten.clang"
  },
  "schemaVersion": "3.4.4",
  "updatedAt": "2022-06-05T21:06:35.517Z",
  "devdoc": {
    "kind": "dev",
    "methods": {
      "approve(address,uint256)": {
        "details": "See {IERC721-approve}."
      },
      "balanceOf(address)": {
        "details": "See {IERC721-balanceOf}."
      },
      "getApproved(uint256)": {
        "details": "See {IERC721-getApproved}."
      },
      "isApprovedForAll(address,address)": {
        "details": "See {IERC721-isApprovedForAll}."
      },
      "name()": {
        "details": "See {IERC721Metadata-name}."
      },
      "ownerOf(uint256)": {
        "details": "See {IERC721-ownerOf}."
      },
      "safeTransferFrom(address,address,uint256)": {
        "details": "See {IERC721-safeTransferFrom}."
      },
      "safeTransferFrom(address,address,uint256,bytes)": {
        "details": "See {IERC721-safeTransferFrom}."
      },
      "setApprovalForAll(address,bool)": {
        "details": "See {IERC721-setApprovalForAll}."
      },
      "supportsInterface(bytes4)": {
        "details": "See {IERC165-supportsInterface}."
      },
      "symbol()": {
        "details": "See {IERC721Metadata-symbol}."
      },
      "tokenURI(uint256)": {
        "details": "See {IERC721Metadata-tokenURI}."
      },
      "transferFrom(address,address,uint256)": {
        "details": "See {IERC721-transferFrom}."
      }
    },
    "version": 1
  },
  "userdoc": {
    "kind": "user",
    "methods": {},
    "version": 1
  }
}