{
  "contractName": "ZenconNFT",
  "abi": [
    {
      "inputs": [
        {
          "internalType": "address",
          "name": "_token",
          "type": "address"
        }
      ],
      "stateMutability": "nonpayable",
      "type": "constructor"
    },
    {
      "anonymous": false,
      "inputs": [
        {
          "indexed": true,
          "internalType": "address",
          "name": "owner",
          "type": "address"
        },
        {
          "indexed": true,
          "internalType": "address",
          "name": "approved",
          "type": "address"
        },
        {
          "indexed": true,
          "internalType": "uint256",
          "name": "tokenId",
          "type": "uint256"
        }
      ],
      "name": "Approval",
      "type": "event"
    },
    {
      "anonymous": false,
      "inputs": [
        {
          "indexed": true,
          "internalType": "address",
          "name": "owner",
          "type": "address"
        },
        {
          "indexed": true,
          "internalType": "address",
          "name": "operator",
          "type": "address"
        },
        {
          "indexed": false,
          "internalType": "bool",
          "name": "approved",
          "type": "bool"
        }
      ],
      "name": "ApprovalForAll",
      "type": "event"
    },
    {
      "anonymous": false,
      "inputs": [
        {
          "indexed": true,
          "internalType": "address",
          "name": "sender",
          "type": "address"
        },
        {
          "indexed": false,
          "internalType": "uint256",
          "name": "amount",
          "type": "uint256"
        },
        {
          "indexed": false,
          "internalType": "uint256",
          "name": "claimTime",
          "type": "uint256"
        },
        {
          "indexed": false,
          "internalType": "uint256",
          "name": "nftId",
          "type": "uint256"
        }
      ],
      "name": "ClaimReward",
      "type": "event"
    },
    {
      "anonymous": false,
      "inputs": [
        {
          "indexed": true,
          "internalType": "address",
          "name": "sender",
          "type": "address"
        },
        {
          "indexed": false,
          "internalType": "uint256",
          "name": "amount",
          "type": "uint256"
        },
        {
          "indexed": false,
          "internalType": "uint256",
          "name": "nftId",
          "type": "uint256"
        }
      ],
      "name": "CreateReward",
      "type": "event"
    },
    {
      "anonymous": false,
      "inputs": [
        {
          "indexed": true,
          "internalType": "address",
          "name": "from",
          "type": "address"
        },
        {
          "indexed": true,
          "internalType": "address",
          "name": "to",
          "type": "address"
        },
        {
          "indexed": true,
          "internalType": "uint256",
          "name": "tokenId",
          "type": "uint256"
        }
      ],
      "name": "Transfer",
      "type": "event"
    },
    {
      "inputs": [
        {
          "internalType": "address",
          "name": "to",
          "type": "address"
        },
        {
          "internalType": "uint256",
          "name": "tokenId",
          "type": "uint256"
        }
      ],
      "name": "approve",
      "outputs": [],
      "stateMutability": "nonpayable",
      "type": "function"
    },
    {
      "inputs": [
        {
          "internalType": "address",
          "name": "owner",
          "type": "address"
        }
      ],
      "name": "balanceOf",
      "outputs": [
        {
          "internalType": "uint256",
          "name": "",
          "type": "uint256"
        }
      ],
      "stateMutability": "view",
      "type": "function"
    },
    {
      "inputs": [
        {
          "internalType": "uint256",
          "name": "tokenId",
          "type": "uint256"
        }
      ],
      "name": "getApproved",
      "outputs": [
        {
          "internalType": "address",
          "name": "",
          "type": "address"
        }
      ],
      "stateMutability": "view",
      "type": "function"
    },
    {
      "inputs": [
        {
          "internalType": "address",
          "name": "owner",
          "type": "address"
        },
        {
          "internalType": "address",
          "name": "operator",
          "type": "address"
        }
      ],
      "name": "isApprovedForAll",
      "outputs": [
        {
          "internalType": "bool",
          "name": "",
          "type": "bool"
        }
      ],
      "stateMutability": "view",
      "type": "function"
    },
    {
      "inputs": [],
      "name": "name",
      "outputs": [
        {
          "internalType": "string",
          "name": "",
          "type": "string"
        }
      ],
      "stateMutability": "view",
      "type": "function"
    },
    {
      "inputs": [],
      "name": "nftCounter",
      "outputs": [
        {
          "internalType": "uint256",
          "name": "",
          "type": "uint256"
        }
      ],
      "stateMutability": "view",
      "type": "function"
    },
    {
      "inputs": [
        {
          "internalType": "uint256",
          "name": "tokenId",
          "type": "uint256"
        }
      ],
      "name": "ownerOf",
      "outputs": [
        {
          "internalType": "address",
          "name": "",
          "type": "address"
        }
      ],
      "stateMutability": "view",
      "type": "function"
    },
    {
      "inputs": [
        {
          "internalType": "uint256",
          "name": "",
          "type": "uint256"
        }
      ],
      "name": "rewardNFTs",
      "outputs": [
        {
          "internalType": "bool",
          "name": "active",
          "type": "bool"
        },
        {
          "internalType": "uint256",
          "name": "amount",
          "type": "uint256"
        }
      ],
      "stateMutability": "view",
      "type": "function"
    },
    {
      "inputs": [
        {
          "internalType": "address",
          "name": "from",
          "type": "address"
        },
        {
          "internalType": "address",
          "name": "to",
          "type": "address"
        },
        {
          "internalType": "uint256",
          "name": "tokenId",
          "type": "uint256"
        }
      ],
      "name": "safeTransferFrom",
      "outputs": [],
      "stateMutability": "nonpayable",
      "type": "function"
    },
    {
      "inputs": [
        {
          "internalType": "address",
          "name": "from",
          "type": "address"
        },
        {
          "internalType": "address",
          "name": "to",
          "type": "address"
        },
        {
          "internalType": "uint256",
          "name": "tokenId",
          "type": "uint256"
        },
        {
          "internalType": "bytes",
          "name": "_data",
          "type": "bytes"
        }
      ],
      "name": "safeTransferFrom",
      "outputs": [],
      "stateMutability": "nonpayable",
      "type": "function"
    },
    {
      "inputs": [
        {
          "internalType": "address",
          "name": "operator",
          "type": "address"
        },
        {
          "internalType": "bool",
          "name": "approved",
          "type": "bool"
        }
      ],
      "name": "setApprovalForAll",
      "outputs": [],
      "stateMutability": "nonpayable",
      "type": "function"
    },
    {
      "inputs": [
        {
          "internalType": "bytes4",
          "name": "interfaceId",
          "type": "bytes4"
        }
      ],
      "name": "supportsInterface",
      "outputs": [
        {
          "internalType": "bool",
          "name": "",
          "type": "bool"
        }
      ],
      "stateMutability": "view",
      "type": "function"
    },
    {
      "inputs": [],
      "name": "symbol",
      "outputs": [
        {
          "internalType": "string",
          "name": "",
          "type": "string"
        }
      ],
      "stateMutability": "view",
      "type": "function"
    },
    {
      "inputs": [],
      "name": "token",
      "outputs": [
        {
          "internalType": "contract IERC20",
          "name": "",
          "type": "address"
        }
      ],
      "stateMutability": "view",
      "type": "function"
    },
    {
      "inputs": [
        {
          "internalType": "uint256",
          "name": "tokenId",
          "type": "uint256"
        }
      ],
      "name": "tokenURI",
      "outputs": [
        {
          "internalType": "string",
          "name": "",
          "type": "string"
        }
      ],
      "stateMutability": "view",
      "type": "function"
    },
    {
      "inputs": [
        {
          "internalType": "address",
          "name": "from",
          "type": "address"
        },
        {
          "internalType": "address",
          "name": "to",
          "type": "address"
        },
        {
          "internalType": "uint256",
          "name": "tokenId",
          "type": "uint256"
        }
      ],
      "name": "transferFrom",
      "outputs": [],
      "stateMutability": "nonpayable",
      "type": "function"
    },
    {
      "stateMutability": "payable",
      "type": "receive"
    },
    {
      "inputs": [
        {
          "internalType": "uint256",
          "name": "_amount",
          "type": "uint256"
        }
      ],
      "name": "createRewardNFT",
      "outputs": [
        {
          "internalType": "bool",
          "name": "",
          "type": "bool"
        }
      ],
      "stateMutability": "nonpayable",
      "type": "function"
    },
    {
      "inputs": [
        {
          "internalType": "uint256",
          "name": "nftId",
          "type": "uint256"
        }
      ],
      "name": "claimRewardNFT",
      "outputs": [
        {
          "internalType": "bool",
          "name": "",
          "type": "bool"
        }
      ],
      "stateMutability": "nonpayable",
      "type": "function"
    }
  ],
  "bytecode": "0x60806040523480156200001157600080fd5b5060405162001c7e38038062001c7e833981016040819052620000349162000179565b604080518082018252601181527016995b98dbdb8814995dd85c9908139195607a1b60208083019182528351808501909452600984526814995dd85c9913919560ba1b9084015281519192916200008e91600091620000d3565b508051620000a4906001906020840190620000d3565b5050600680546001600160a01b0319166001600160a01b039390931692909217909155506000600755620001e7565b828054620000e190620001ab565b90600052602060002090601f01602090048101928262000105576000855562000150565b82601f106200012057805160ff191683800117855562000150565b8280016001018555821562000150579182015b828111156200015057825182559160200191906001019062000133565b506200015e92915062000162565b5090565b5b808211156200015e576000815560010162000163565b6000602082840312156200018c57600080fd5b81516001600160a01b0381168114620001a457600080fd5b9392505050565b600181811c90821680620001c057607f821691505b602082108103620001e157634e487b7160e01b600052602260045260246000fd5b50919050565b611a8780620001f76000396000f3fe60806040526004361061010d5760003560e01c8063973538ab11610095578063bbc1140711610064578063bbc1140714610369578063c87b56dd14610389578063e574609e146103a9578063e985e9c5146103bf578063fc0c546a1461040857600080fd5b8063973538ab146102b8578063a22cb46514610309578063b737c17314610329578063b88d4fde1461034957600080fd5b806323b872dd116100dc57806323b872dd1461021557806342842e0e146102355780636352211e1461025557806370a082311461027557806395d89b41146102a357600080fd5b806301ffc9a71461016457806306fdde0314610199578063081812fc146101bb578063095ea7b3146101f357600080fd5b3661015f5760405162461bcd60e51b815260206004820152601c60248201527f4e6174697665206465706f736974206e6f7420737570706f727465640000000060448201526064015b60405180910390fd5b600080fd5b34801561017057600080fd5b5061018461017f36600461155b565b610428565b60405190151581526020015b60405180910390f35b3480156101a557600080fd5b506101ae61047a565b60405161019091906115d0565b3480156101c757600080fd5b506101db6101d63660046115e3565b61050c565b6040516001600160a01b039091168152602001610190565b3480156101ff57600080fd5b5061021361020e366004611618565b6105a1565b005b34801561022157600080fd5b50610213610230366004611642565b6106b6565b34801561024157600080fd5b50610213610250366004611642565b6106e7565b34801561026157600080fd5b506101db6102703660046115e3565b610702565b34801561028157600080fd5b5061029561029036600461167e565b610779565b604051908152602001610190565b3480156102af57600080fd5b506101ae610800565b3480156102c457600080fd5b506102f26102d33660046115e3565b6008602052600090815260409020805460019091015460ff9091169082565b604080519215158352602083019190915201610190565b34801561031557600080fd5b506102136103243660046116a7565b61080f565b34801561033557600080fd5b506101846103443660046115e3565b61081e565b34801561035557600080fd5b506102136103643660046116f4565b610a9e565b34801561037557600080fd5b506101846103843660046115e3565b610ad6565b34801561039557600080fd5b506101ae6103a43660046115e3565b610cc7565b3480156103b557600080fd5b5061029560075481565b3480156103cb57600080fd5b506101846103da3660046117d0565b6001600160a01b03918216600090815260056020908152604080832093909416825291909152205460ff1690565b34801561041457600080fd5b506006546101db906001600160a01b031681565b60006001600160e01b031982166380ac58cd60e01b148061045957506001600160e01b03198216635b5e139f60e01b145b8061047457506301ffc9a760e01b6001600160e01b03198316145b92915050565b60606000805461048990611803565b80601f01602080910402602001604051908101604052809291908181526020018280546104b590611803565b80156105025780601f106104d757610100808354040283529160200191610502565b820191906000526020600020905b8154815290600101906020018083116104e557829003601f168201915b5050505050905090565b6000818152600260205260408120546001600160a01b03166105855760405162461bcd60e51b815260206004820152602c60248201527f4552433732313a20617070726f76656420717565727920666f72206e6f6e657860448201526b34b9ba32b73a103a37b5b2b760a11b6064820152608401610156565b506000908152600460205260409020546001600160a01b031690565b60006105ac82610702565b9050806001600160a01b0316836001600160a01b0316036106195760405162461bcd60e51b815260206004820152602160248201527f4552433732313a20617070726f76616c20746f2063757272656e74206f776e656044820152603960f91b6064820152608401610156565b336001600160a01b0382161480610635575061063581336103da565b6106a75760405162461bcd60e51b815260206004820152603860248201527f4552433732313a20617070726f76652063616c6c6572206973206e6f74206f7760448201527f6e6572206e6f7220617070726f76656420666f7220616c6c00000000000000006064820152608401610156565b6106b18383610daf565b505050565b6106c03382610e1d565b6106dc5760405162461bcd60e51b81526004016101569061183d565b6106b1838383610f14565b6106b183838360405180602001604052806000815250610a9e565b6000818152600260205260408120546001600160a01b0316806104745760405162461bcd60e51b815260206004820152602960248201527f4552433732313a206f776e657220717565727920666f72206e6f6e657869737460448201526832b73a103a37b5b2b760b91b6064820152608401610156565b60006001600160a01b0382166107e45760405162461bcd60e51b815260206004820152602a60248201527f4552433732313a2062616c616e636520717565727920666f7220746865207a65604482015269726f206164647265737360b01b6064820152608401610156565b506001600160a01b031660009081526003602052604090205490565b60606001805461048990611803565b61081a3383836110b0565b5050565b60008082116108795760405162461bcd60e51b815260206004820152602160248201527f416d6f756e74206e6565647320746f2062652067726561746572207468616e206044820152600360fc1b6064820152608401610156565b600654604051636eb1769f60e11b815233600482015230602482015283916001600160a01b03169063dd62ed3e90604401602060405180830381865afa1580156108c7573d6000803e3d6000fd5b505050506040513d601f19601f820116820180604052508101906108eb919061188e565b10156109395760405162461bcd60e51b815260206004820152601960248201527f53657420746f6b656e20616c6c6f77616e6365206669727374000000000000006044820152606401610156565b6006546040516323b872dd60e01b8152336004820152306024820152604481018490526000916001600160a01b0316906323b872dd906064016020604051808303816000875af1158015610991573d6000803e3d6000fd5b505050506040513d601f19601f820116820180604052508101906109b591906118a7565b9050806109f65760405162461bcd60e51b815260206004820152600f60248201526e151c985b9cd9995c8819985a5b1959608a1b6044820152606401610156565b60078054906000610a06836118da565b9091555050604080518082018252600180825260208083018781526007805460009081526008909352949091209251835460ff19169015151783555191015554610a5190339061117e565b60075460405133917f11794ffdef1e98baf3c87f1c9f7b71e08c1d015c9865132e726fe79d330ae14491610a8d91878252602082015260400190565b60405180910390a250600192915050565b610aa83383610e1d565b610ac45760405162461bcd60e51b81526004016101569061183d565b610ad084848484611198565b50505050565b600033610ae283610702565b6001600160a01b031614610b485760405162461bcd60e51b815260206004820152602760248201527f63616e6e6f7420636c61696d20616e204e4654207468617420796f7520646f206044820152663737ba1037bbb760c91b6064820152608401610156565b6000828152600860205260409020805460ff16610ba75760405162461bcd60e51b815260206004820152601f60248201527f63616e6e6f7420636c61696d207468652073616d65204e4654207477696365006044820152606401610156565b805460ff19168155600654600182015460405163a9059cbb60e01b815233600482015260248101919091526000916001600160a01b03169063a9059cbb906044016020604051808303816000875af1158015610c07573d6000803e3d6000fd5b505050506040513d601f19601f82011682018060405250810190610c2b91906118a7565b9050600181151514610c715760405162461bcd60e51b815260206004820152600f60248201526e151c985b9cd9995c8819985a5b1959608a1b6044820152606401610156565b60018201546040805191825263ffffffff42166020830152810185905233907fb26ea8ad92f258bc70244e0ced197b6e05b0dbecd2bfc0950a39d921baafa93f9060600160405180910390a25060019392505050565b6000818152600260205260409020546060906001600160a01b0316610d465760405162461bcd60e51b815260206004820152602f60248201527f4552433732314d657461646174613a2055524920717565727920666f72206e6f60448201526e3732bc34b9ba32b73a103a37b5b2b760891b6064820152608401610156565b6000610d5d60408051602081019091526000815290565b90506000815111610d7d5760405180602001604052806000815250610da8565b80610d87846111cb565b604051602001610d989291906118f3565b6040516020818303038152906040525b9392505050565b600081815260046020526040902080546001600160a01b0319166001600160a01b0384169081179091558190610de482610702565b6001600160a01b03167f8c5be1e5ebec7d5bd14f71427d1e84f3dd0314c0f7b2291e5b200ac8c7c3b92560405160405180910390a45050565b6000818152600260205260408120546001600160a01b0316610e965760405162461bcd60e51b815260206004820152602c60248201527f4552433732313a206f70657261746f7220717565727920666f72206e6f6e657860448201526b34b9ba32b73a103a37b5b2b760a11b6064820152608401610156565b6000610ea183610702565b9050806001600160a01b0316846001600160a01b03161480610ee857506001600160a01b0380821660009081526005602090815260408083209388168352929052205460ff165b80610f0c5750836001600160a01b0316610f018461050c565b6001600160a01b0316145b949350505050565b826001600160a01b0316610f2782610702565b6001600160a01b031614610f8b5760405162461bcd60e51b815260206004820152602560248201527f4552433732313a207472616e736665722066726f6d20696e636f72726563742060448201526437bbb732b960d91b6064820152608401610156565b6001600160a01b038216610fed5760405162461bcd60e51b8152602060048201526024808201527f4552433732313a207472616e7366657220746f20746865207a65726f206164646044820152637265737360e01b6064820152608401610156565b610ff8600082610daf565b6001600160a01b0383166000908152600360205260408120805460019290611021908490611922565b90915550506001600160a01b038216600090815260036020526040812080546001929061104f908490611939565b909155505060008181526002602052604080822080546001600160a01b0319166001600160a01b0386811691821790925591518493918716917fddf252ad1be2c89b69c2b068fc378daa952ba7f163c4a11628f55a4df523b3ef91a4505050565b816001600160a01b0316836001600160a01b0316036111115760405162461bcd60e51b815260206004820152601960248201527f4552433732313a20617070726f766520746f2063616c6c6572000000000000006044820152606401610156565b6001600160a01b03838116600081815260056020908152604080832094871680845294825291829020805460ff191686151590811790915591519182527f17307eab39ab6107e8899845ad3d59bd9653f200f220920489ca2b5937696c31910160405180910390a3505050565b61081a8282604051806020016040528060008152506112cc565b6111a3848484610f14565b6111af848484846112ff565b610ad05760405162461bcd60e51b815260040161015690611951565b6060816000036111f25750506040805180820190915260018152600360fc1b602082015290565b8160005b811561121c5780611206816118da565b91506112159050600a836119b9565b91506111f6565b60008167ffffffffffffffff811115611237576112376116de565b6040519080825280601f01601f191660200182016040528015611261576020820181803683370190505b5090505b8415610f0c57611276600183611922565b9150611283600a866119cd565b61128e906030611939565b60f81b8183815181106112a3576112a36119e1565b60200101906001600160f81b031916908160001a9053506112c5600a866119b9565b9450611265565b6112d68383611400565b6112e360008484846112ff565b6106b15760405162461bcd60e51b815260040161015690611951565b60006001600160a01b0384163b156113f557604051630a85bd0160e11b81526001600160a01b0385169063150b7a02906113439033908990889088906004016119f7565b6020604051808303816000875af192505050801561137e575060408051601f3d908101601f1916820190925261137b91810190611a34565b60015b6113db573d8080156113ac576040519150601f19603f3d011682016040523d82523d6000602084013e6113b1565b606091505b5080516000036113d35760405162461bcd60e51b815260040161015690611951565b805181602001fd5b6001600160e01b031916630a85bd0160e11b149050610f0c565b506001949350505050565b6001600160a01b0382166114565760405162461bcd60e51b815260206004820181905260248201527f4552433732313a206d696e7420746f20746865207a65726f20616464726573736044820152606401610156565b6000818152600260205260409020546001600160a01b0316156114bb5760405162461bcd60e51b815260206004820152601c60248201527f4552433732313a20746f6b656e20616c7265616479206d696e746564000000006044820152606401610156565b6001600160a01b03821660009081526003602052604081208054600192906114e4908490611939565b909155505060008181526002602052604080822080546001600160a01b0319166001600160a01b03861690811790915590518392907fddf252ad1be2c89b69c2b068fc378daa952ba7f163c4a11628f55a4df523b3ef908290a45050565b6001600160e01b03198116811461155857600080fd5b50565b60006020828403121561156d57600080fd5b8135610da881611542565b60005b8381101561159357818101518382015260200161157b565b83811115610ad05750506000910152565b600081518084526115bc816020860160208601611578565b601f01601f19169290920160200192915050565b602081526000610da860208301846115a4565b6000602082840312156115f557600080fd5b5035919050565b80356001600160a01b038116811461161357600080fd5b919050565b6000806040838503121561162b57600080fd5b611634836115fc565b946020939093013593505050565b60008060006060848603121561165757600080fd5b611660846115fc565b925061166e602085016115fc565b9150604084013590509250925092565b60006020828403121561169057600080fd5b610da8826115fc565b801515811461155857600080fd5b600080604083850312156116ba57600080fd5b6116c3836115fc565b915060208301356116d381611699565b809150509250929050565b634e487b7160e01b600052604160045260246000fd5b6000806000806080858703121561170a57600080fd5b611713856115fc565b9350611721602086016115fc565b925060408501359150606085013567ffffffffffffffff8082111561174557600080fd5b818701915087601f83011261175957600080fd5b81358181111561176b5761176b6116de565b604051601f8201601f19908116603f01168101908382118183101715611793576117936116de565b816040528281528a60208487010111156117ac57600080fd5b82602086016020830137600060208483010152809550505050505092959194509250565b600080604083850312156117e357600080fd5b6117ec836115fc565b91506117fa602084016115fc565b90509250929050565b600181811c9082168061181757607f821691505b60208210810361183757634e487b7160e01b600052602260045260246000fd5b50919050565b60208082526031908201527f4552433732313a207472616e736665722063616c6c6572206973206e6f74206f6040820152701ddb995c881b9bdc88185c1c1c9bdd9959607a1b606082015260800190565b6000602082840312156118a057600080fd5b5051919050565b6000602082840312156118b957600080fd5b8151610da881611699565b634e487b7160e01b600052601160045260246000fd5b6000600182016118ec576118ec6118c4565b5060010190565b60008351611905818460208801611578565b835190830190611919818360208801611578565b01949350505050565b600082821015611934576119346118c4565b500390565b6000821982111561194c5761194c6118c4565b500190565b60208082526032908201527f4552433732313a207472616e7366657220746f206e6f6e20455243373231526560408201527131b2b4bb32b91034b6b83632b6b2b73a32b960711b606082015260800190565b634e487b7160e01b600052601260045260246000fd5b6000826119c8576119c86119a3565b500490565b6000826119dc576119dc6119a3565b500690565b634e487b7160e01b600052603260045260246000fd5b6001600160a01b0385811682528416602082015260408101839052608060608201819052600090611a2a908301846115a4565b9695505050505050565b600060208284031215611a4657600080fd5b8151610da88161154256fea2646970667358221220b2768fdc64d73ab1343f727c26486272de6b66b99736378bfb511a1eb9e08d5664736f6c634300080e0033",
  "immutableReferences": {},
  "source": "//SPDX-License-Identifier: UNLICENSED\nimport \"@openzeppelin/contracts/token/ERC20/IERC20.sol\";\nimport \"@openzeppelin/contracts/token/ERC721/ERC721.sol\";\n\npragma solidity ^0.8.10;\n\n// This contract creates \"reward-NFTs\" that hold a specified amount of token.\n// Those reward-NFTs can be claimed to payout tokens to NFT-owners.\n// You can think of reward-NFTs like a voucher or gift card.\ncontract ZenconNFT is ERC721 {\n\n    struct RewardNFT {\n        // this struct can be expanded for application-specific NFT functionalities\n        bool active;\n        uint256 amount;\n    }\n\n    IERC20 public token; // holds the contract-address of a deployed token (ZenconToken), to be used for rewards\n    uint256 public nftCounter; // nftCounter is used to generate unique nftIDs\n\n    mapping(uint256 => RewardNFT) public rewardNFTs; // mapping from nftIDs to RewardNFT-structs\n\n    event CreateReward(address indexed sender, uint256 amount, uint256 nftId);\n    event ClaimReward(address indexed sender, uint256 amount, uint256 claimTime, uint256 nftId);\n\n    constructor(address _token)\n    ERC721(\"Zencon Reward NFT\", \"RewardNFT\") { // invoke constructor from super class\n        // initialize global variables in constructor\n        token = IERC20(_token);\n        nftCounter = 0;\n    }\n\n    receive() external payable {\n        // prevent the native coin of a chain (ZENIQ coin) to be sent to this contract\n        revert(\"Native deposit not supported\");\n    }\n\n    function createRewardNFT(uint256 _amount) external returns (bool) {\n        require(_amount > 0, \"Amount needs to be greater than 0\");\n\n        // Check if this contract is allowed to transfer ERC20-tokens from your wallet.\n        // An allowance can be granted by calling the approve-function of the ERC20-token.\n        // For example, a frontend can connect to a wallet and call the approve-function right before calling this function.\n        require(token.allowance(msg.sender, address(this)) >= _amount, \"Set token allowance first\");\n\n        // Transfers tokens from your wallet to this contract\n        bool successTx = token.transferFrom(msg.sender, address(this), _amount);\n        require(successTx, \"Transfer failed\");\n\n        nftCounter++;\n        rewardNFTs[nftCounter] = RewardNFT(true, _amount); // create NFT in the rewardsNFTs data structure\n        _safeMint(msg.sender, nftCounter); // create NFT in data structures of the ERC721 super class\n\n        emit CreateReward(msg.sender, _amount, nftCounter);\n        return true;\n    }\n\n    function claimRewardNFT(uint256 nftId) public returns (bool) {\n        require(ownerOf(nftId) == msg.sender, \"cannot claim an NFT that you do not own\");\n\n        RewardNFT storage nft = rewardNFTs[nftId];\n        require(nft.active, \"cannot claim the same NFT twice\");\n        nft.active = false; // prevent the same NFT from being claimed multiple times\n\n        bool success = token.transfer(msg.sender, nft.amount);\n        require(success == true, \"Transfer failed\");\n\n        emit ClaimReward(msg.sender, nft.amount, uint32(block.timestamp), nftId);\n        return true;\n    }\n}\n",
  "sourcePath": "/home/codedrifter/ekoky-blockchain/contracts/ZenconNFT.sol",
  "compiler": {
    "name": "solc",
    "version": "0.8.14+commit.80d49f37.Emscripten.clang"
  },
  "schemaVersion": "3.4.4",
  "updatedAt": "2022-06-05T14:31:30.440Z",
  "devdoc": {
    "kind": "dev",
    "methods": {
      "approve(address,uint256)": {
        "details": "See {IERC721-approve}."
      },
      "balanceOf(address)": {
        "details": "See {IERC721-balanceOf}."
      },
      "getApproved(uint256)": {
        "details": "See {IERC721-getApproved}."
      },
      "isApprovedForAll(address,address)": {
        "details": "See {IERC721-isApprovedForAll}."
      },
      "name()": {
        "details": "See {IERC721Metadata-name}."
      },
      "ownerOf(uint256)": {
        "details": "See {IERC721-ownerOf}."
      },
      "safeTransferFrom(address,address,uint256)": {
        "details": "See {IERC721-safeTransferFrom}."
      },
      "safeTransferFrom(address,address,uint256,bytes)": {
        "details": "See {IERC721-safeTransferFrom}."
      },
      "setApprovalForAll(address,bool)": {
        "details": "See {IERC721-setApprovalForAll}."
      },
      "supportsInterface(bytes4)": {
        "details": "See {IERC165-supportsInterface}."
      },
      "symbol()": {
        "details": "See {IERC721Metadata-symbol}."
      },
      "tokenURI(uint256)": {
        "details": "See {IERC721Metadata-tokenURI}."
      },
      "transferFrom(address,address,uint256)": {
        "details": "See {IERC721-transferFrom}."
      }
    },
    "version": 1
  },
  "userdoc": {
    "kind": "user",
    "methods": {},
    "version": 1
  }
}